:020000040800F2
:10000000C81800203D010008750A000855060008C0
:1000100000000000000000000000000000000000E0
:10002000000000000000000000000000150B0008A8
:100030000000000000000000770A0008170B00080D
:100040004F010008000000004F0100084F010008A8
:100050004F0100084F0100084F0100084F01000840
:10006000000000004F0100084F0100084F01000888
:100070004F0100084F0100084F0100080000000078
:100080004F0100084F010008000000004F01000868
:100090004F0100084F0100084F0100084F01000800
:1000A0004F0100084F0100084F0100084F010008F0
:1000B000311A000800F002F800F030F80CA030C847
:1000C000083824182D18A246671EAB4654465D46D4
:1000D000AC4201D100F022F87E460F3E0FCCB6466E
:1000E0000126334200D0FB1AA246AB4633431847E1
:1000F000341E0000541E00000023002400250026AA
:10010000103A01D378C1FBD8520700D330C100D5D3
:100110000B6070471FB51FBD10B510BD00F0FAF899
:100120001146FFF7F7FF01F085FC00F012F903B468
:10013000FFF7F2FF03BC00F019F900000748804701
:1001400007480047FEE7FEE7FEE7FEE7FEE7FEE7BB
:1001500004480549054A064B70470000C10B0008DA
:10016000B5000008C8120020C8180020C8140020DC
:10017000C814002001E004C0091F0429FBD28B072A
:1001800001D50280801CC90700D002707047002989
:100190000BD0C30702D00270401C491E022904D3B1
:1001A000830702D50280801C891EE3E70022EEE768
:1001B0000022DFE7002203098B422CD3030A8B4283
:1001C00011D300239C464EE003460B433CD400224F
:1001D00043088B4231D303098B421CD3030A8B4261
:1001E00001D394463FE0C3098B4201D3CB01C01A2F
:1001F000524183098B4201D38B01C01A52414309FA
:100200008B4201D34B01C01A524103098B4201D3E7
:100210000B01C01A5241C3088B4201D3CB00C01A54
:10022000524183088B4201D38B00C01A52414308CC
:100230008B4201D34B00C01A5241411A00D20146F1
:100240005241104670475DE0CA0F00D0494203108A
:1002500000D34042534000229C4603098B422DD3D9
:10026000030A8B4212D3FC22890112BA030A8B4281
:100270000CD3890192118B4208D3890192118B42D0
:1002800004D389013AD0921100E08909C3098B4255
:1002900001D3CB01C01A524183098B4201D38B0198
:1002A000C01A524143098B4201D34B01C01A52413B
:1002B00003098B4201D30B01C01A5241C3088B4280
:1002C00001D3CB00C01A524183088B4201D38B006B
:1002D000C01A5241D9D243088B4201D34B00C01AF5
:1002E0005241411A00D20146634652415B1010460A
:1002F00001D34042002B00D54942704763465B1052
:1003000000D3404201B50020C046C04602BD704740
:1003100070477047754600F025F8AE4605006946FF
:100320005346C008C000854618B020B5FFF710FF3F
:1003300060BC00274908B6460026C0C5C0C5C0C578
:10034000C0C5C0C5C0C5C0C5C0C5403D49008D467B
:10035000704710B50446C046C0462046FFF7E7FE8A
:1003600010BD0000004870476412002001491820A9
:10037000ABBEFEE726000200704770B58C1805780A
:10038000401C6B075B0F01D10378401C2A1106D17A
:100390000278401C03E00678401C0E70491C5B1E6E
:1003A000F9D12B0705D40023521E0DD40B70491C24
:1003B000FAE70378401CCB1A921C03E01D780D70FD
:1003C000491C5B1C521EF9D5A142D8D3002070BD38
:1003D000012903D0022915D0384870470078C02879
:1003E0000AD0E0280AD0F0280AD0FF2802D03348EB
:1003F0002830704701207047022070470320704763
:10040000042070470178C0291CD0E0292ED0F029A3
:1004100040D0FF2902D02948C01C70474078C0282E
:100420000AD0E0280AD0F0280AD0FF2802D02348BA
:100430001D30704705207047062070470720704721
:10044000082070474078C0280AD0E0280AD0F02859
:100450000AD0FF2802D0194815307047092070478C
:100460000A2070470B2070470C2070474078C02846
:100470000AD0E0280AD0F0280AD0FF2802D00F487E
:100480000D3070470D2070470E2070470F207047C9
:10049000102070474078C0280AD0E0280AD0F02801
:1004A0000AD0FF2802D00548401D70471120704730
:1004B00012207047132070471420704711FDFFFF72
:1004C000012903D0022915D0384870470078202828
:1004D00008D050280AD0602806D0B02808D0334869
:1004E0002830704701207047022070470320704772
:1004F000042070470178202908D050292ED0602987
:1005000018D0B0293ED02948C01C70474078202818
:1005100008D050280AD0602806D0B02808D0234838
:100520001D30704705207047062070470720704730
:10053000082070474078202808D050280AD060282A
:1005400006D0B02808D019481530704709207047E8
:100550000A2070470B2070470C20704740782028F5
:1005600008D050280AD0602806D0B02808D00F48FC
:100570000D3070470D2070470E2070470F207047D8
:10058000102070474078202808D050280AD06028D2
:1005900006D0B02808D00548401D7047112070478C
:1005A00012207047132070471420704743FDFFFF4F
:1005B000012903D0022911D025487047007840282E
:1005C00008D0802804D0A02806D021481D307047CC
:1005D00002207047032070470420704701784029AB
:1005E00016D0802904D0A02922D01948C01C7047F9
:1005F0004078402808D0802804D0A02806D014488D
:100600001330704705207047062070470720704759
:100610004078402808D0802804D0A02806D00C4874
:100620000C30704708207047092070470A20704737
:100630004078402808D0802804D0A02806D004485C
:10064000401D70470B2070470C2070470D207047ED
:10065000EAFCFFFFFEE7000008B504494A690243CF
:100660004A6149690140009108BD00000010024044
:1006700008B50449CA690243CA61C96901400091C9
:1006800008BD00000010024010B5002304792A4A7A
:100690000168002C47D000294CD04479002C0FD0A1
:1006A000012C15D0022C1BD001238179002941D0C7
:1006B00001291DD0022924D003292BD0012339E0A0
:1006C00054688C435460016814680C431460ECE770
:1006D00014688C431460016854680C435460E4E768
:1006E00014680C431460016854680C435460DCE7E0
:1006F0000168D4688C43D4600068916801439160BC
:1007000018E0016894688C4394600068D1680143E4
:10071000D1600FE0016894680C4394600068D16870
:100720000143D16006E014688C431460006851688E
:1007300081435160184610BD00040140F0B500230C
:100740004DE001249C402240002A47D04C68012CF7
:1007500001D0022C10D18D6814468668644367006E
:10076000E719BE436C4326438660CD680C68466833
:10077000A6436C43264346600F691446C66864432B
:1007800065006519AC46AE4325467D432E43C660E1
:100790004D68022D1BD1FF2A0CD84F691646056AF9
:1007A0002246724372431601B61AB5437A43154383
:1007B00005620CE04E69150A2A466A436A436A4399
:1007C0001501476AAD1AAF437243174347624A683F
:1007D00005686646B5435443254305605B1C0A68BB
:1007E0001446DC40ADD10020F0BD000010B57D21E5
:1007F000C900FFF7DFFC0449401E48610020886102
:100800000520086110BD000000E000E010B50446BE
:1008100000F04EF9206000F02FF9606000F03AF926
:10082000A06010BD10B50146002000290FD1114A6B
:10083000116B8907890F01290AD0022912D00329D7
:1008400009D000F035F900F017F900F023F910BDD8
:1008500000F02EF910BD11688907C90F0029F9D0E1
:10086000054810BD116A8907C90F0029F9D0012078
:10087000C00310BD0010024000127A000149086058
:100880007047000000000020FEB504460D4601261A
:10089000002021683140002943D1EA686968AB69CA
:1008A00011432A691A43114322681F4B1A4011430E
:1008B0002160A968626803231B039A430A436260AC
:1008C0006969A2681B119A430A43A26017498C42C6
:1008D00002D1FFF7A7FF06E015498C4203D1684615
:1008E000FFF794FF029800281BD02968002918D030
:1008F0000026AA690123DB039A420CD140004A0872
:100900008018FFF757FC80B20A4901400007420FE8
:100910000A43E26005E04A081018FFF74BFC80B27A
:10092000E0603046FEBD0000F369FFFF0038014083
:1009300000440040F0FF0000F0B589B000240794A7
:100940000894182101A8FFF733FC0120C004FFF729
:1009500083FE01208005FFF77FFE01204004FFF7A2
:100960007BFE20210925ED06A96213498868F02243
:1009700090432026304388604B141049CA680320F6
:1009800080068243CA600A6882430A60079301278F
:1009900008A90F704C700220887007A8FFF774FE3A
:1009A0000196029703940494059401A92846FFF741
:1009B000C5FE09B0F0BD00000C0001400008004871
:1009C000F0B58DB01C2106A8FFF7F2FB1821684690
:1009D000FFF7EEFB012464042046FFF749FE2046A2
:1009E000FFF73AFE042000900226019600240294AC
:1009F000039404940125059509206946C006FFF774
:100A00009DFE08270097019602940394049405958F
:100A100009206946C006FFF791FE13480168090ADC
:100A200009020160114928070860E1204002069090
:100A30000794089409940C200A900B940C940C4C85
:100A400006A92046FFF720FFA06821158843A06073
:100A50006068490088436060A068B843A06020686F
:100A6000284320600DB0F0BD1CE400E000E100E090
:100A700000440040FEE7704704494968F0221140F5
:100A8000034A0909515CC840704700000010024049
:100A90000C1F000804494968072212021140034A4A
:100AA000090A515CC8407047001002401C1F000832
:100AB00010B5074841680C2001400648002905D0C0
:100AC000042903D0082901D100F006F810BD000068
:100AD0000010024000127A0010B50C4C616801222F
:100AE000120411400A48002902D0914200D140006E
:100AF000E16A0907090F491CFFF75CFB61680F22D7
:100B000092041140890C891C484310BD001002401A
:100B100000093D007047704710B501212548026863
:100B20008A430A4302600168C907C90F0029FAD045
:100B30002148016801221143016001688907C90F3A
:100B40000029FAD00168F822914380221143016004
:100B50000522D20441683D231B049943114341609F
:100B6000C16A09090901C162016801221206114323
:100B7000016001688901C90F0029FAD04168F0229B
:100B80009143416041680722120291434160022172
:100B90004268920892000A4342600C224168114068
:100BA0000829FBD1054C2046FFF720FE2046FFF721
:100BB00065FE10BD0020024000100240006CDC0207
:100BC00070470000F0B58DB007461646002B17D0D1
:100BD00000240CA8059078180C900490F5180020BB
:100BE000039002900190B54210D1029903980843F6
:100BF00001990843204305D02720C0430DB0F0BD24
:100C00000020FBE704990C98401AF7E7039918298C
:100C100002DB2A20C043F1E7029A182A02DB2B20CC
:100C2000C043EBE7019B182B02DB2C20C043E5E718
:100C30006D1E2878C40912D08409022C46D04209BE
:100C4000062A62D002090E2A68D0FF2872D0040753
:100C5000240F00296CD0002B6BD0FC48CEE7840910
:100C60000BD04409022C1CD0C406E40E002A72D01A
:100C7000002B71D09F20C043C0E7C406E40E40099A
:100C800006D0002A71D0002B5CD07620C043B5E797
:100C9000002C73D0002972D0002A71D0EB48A538FF
:100CA000ACE70409042C08D00407240F002A68D0FC
:100CB000002B67D0C820C043A0E70407240F0029F9
:100CC0007ED0002A7DD0E148523897E74409042CB1
:100CD0000BD00407240F00090A280FD0002A71D076
:100CE000002B70D0F120C04388E7C406E40E002931
:100CF0006AD0002A69D0D54829387FE700297DD0FD
:100D0000002A7CD0D1487B3878E7C406E40E00295D
:100D100076D0002B75D0CD4852306FE70407240FF2
:100D200000296FD0002B6ED0C848293066E701E05B
:100D3000C8E2B7E20024002977D0002B76D0C34860
:100D40007B305BE7059906A8401A1830904205D021
:100D50007720C04352E77AE069E006E002AA05A9DD
:100D600004A800F0F3FE002886D1019800281DD0C9
:100D70000299002907D07E20C0433FE7FEE3FEE34F
:100D8000FEE3C4E0B3E0059A06A9891A183181424E
:100D900002D07F20C04331E76D1E2B786D1C01AA65
:100DA00005A904A801F008F8002885D1002C11D16C
:100DB000B5420FD005982021401E0590017005E036
:100DC00040E32FE303E1F2E0DCE2CBE20398401CD6
:100DD000039008E705982021401E059001700398B4
:100DE000401C039003AA05A904A801F075F8002887
:100DF0008AD1281BB04207D29548FFE686E375E307
:100E0000A1E190E1FEE1EDE104993819884207D9AA
:100E10009048F3E66D1E04982978401E04900170F6
:100E2000641E601CF6D10024DDE635E125E105995C
:100E300006A8401A1830904202D0A020C043DDE638
:100E400002AA05A904A800F081FE002895D1019806
:100E5000002818D00299002902D0A720C043CDE66F
:100E6000059A06A9891A1831814202D0A820C043E8
:100E7000C4E66D1E2B786D1C01AA05A904A800F01C
:100E80009BFF002887D1002C0AD1B54208D00598D5
:100E90006021401E059001700398401C0390A2E65B
:100EA00005986021401E059001700398401C039036
:100EB00003AA05A904A801F00FF800289DD1281B5A
:100EC000B04202D26248293898E60499381988421B
:100ED00008D96048293891E66D1E04982978401E8B
:100EE00004900170641E601CF6D100247BE6059915
:100EF00006A8401A1830904202D0C920C0437DE6AF
:100F000002AA05A904A800F021FE002897D10198A3
:100F1000002818D00299002902D0D020C0436DE6E5
:100F2000059A06A9891A1831814202D0D120C043FE
:100F300064E66D1E2B786D1C01AA05A904A800F0BB
:100F40003BFF00288BD1002C0AD1B54208D0059870
:100F50005021401E059001700398401C039042E60A
:100F600005985021401E059001700398401C039085
:100F700003AA05A904A800F0AFFF0028A4D1281BEC
:100F8000B04202D23248523838E6049938198842C1
:100F900008D93048523831E66D1E04982978401E31
:100FA00004900170641E601CF6D100241BE60599B4
:100FB00006A8401A1830904202D0F220C0431DE625
:100FC00002AA05A904A800F0C1FD002897D1019844
:100FD000002818D00299002902D0F920C0430DE65C
:100FE000059A06A9891A1831814202D0FA20C04315
:100FF00004E66D1E2B786D1C01AA05A904A800F05B
:10100000DBFE00288BD1002C0AD1B54208D0059810
:10101000B021401E059001700398401C0390E2E54A
:101020000598B021401E059001700398401C039064
:1010300003AA05A904A800F04FFF0028A4D1281B8B
:10104000B04209D202487B38D8E500006AFEFFFFB3
:10105000EC7AE1FF29BDF0FF04993819884207D9DD
:10106000FD48CBE56D1E04982978401E0490017060
:10107000641E601CF6D10024B5E5059A06A8801A06
:101080001830884201D0F548B8E503AA05A904A89C
:1010900000F022FF002892D10198002818D003996F
:1010A000002902D0ED48C01FA8E5059A06A9891AB3
:1010B0001831814202D0E94808389FE56D1E2B782F
:1010C0006D1C01AA05A904A800F076FE002886D1AF
:1010D000B54208D00598FF21401E05900170029886
:1010E000401C02907FE50598FF21401E059001708D
:1010F0000298401C029002AA05A904A800F026FD4F
:101100000028A1D10498874208D9D348293875E529
:101110006D1E04982978401E04900170641E601CA6
:10112000F6D100245FE5059A06A8801A1830884297
:1011300002D0CA48293861E503AA05A904A800F02D
:10114000CBFE00288DD10198002818D003990029E2
:1011500002D0C248303851E5059A06A9891A1831DB
:10116000814202D0BD48313848E56D1E2B786D1C98
:1011700001AA05A904A800F01FFE002884D1002CB4
:101180000AD1B54208D00598C021401E05900170D3
:101190000298401C029026E50598C021401E05904B
:1011A00001700298401C029002AA05A904A800F050
:1011B000CDFC0028ABD1281BB04201D2A8481DE5C8
:1011C00004993819884208D9A348523816E56D1E8B
:1011D00004982978401E04900170641E601CF6D1AA
:1011E000002400E5059A06A8801A1830884202D02B
:1011F0009A48523802E503AA05A904A800F06CFE3B
:10120000002884D10198002818D00399002902D021
:1012100092485938F2E4059A06A9891A1831814290
:1012200002D08E485A38E9E46D1E2B786D1C01AA55
:1012300005A904A800F0C0FD00288CD1002C0AD11B
:10124000B54208D00598E021401E05900170029833
:10125000401C0290C7E40598E021401E05900170F3
:101260000298401C029002AA05A904A800F06EFC96
:101270000028A4D1281BB04202D279482938BDE405
:1012800004993819884208D973487B38B6E46D1E32
:1012900004982978401E04900170641E601CF6D1E9
:1012A0000024A0E4059A06A8801A1830884202D0CB
:1012B0006A487B38A2E403AA05A904A800F00CFE42
:1012C000002897D10198002818D00399002902D04E
:1012D0006248823892E4059A06A9891A1831814237
:1012E00002D05E48833889E46D1E2B786D1C01AAFC
:1012F00005A904A800F060FD00288BD1002C0AD1BC
:10130000B54208D00598F021401E05900170029862
:10131000401C029067E40598F021401E0590017082
:101320000298401C029002AA05A904A800F00EFC35
:101330000028A4D1281BB04202D2494852385DE4AB
:1013400004993819884208D94348A43856E46D1ED8
:1013500004982978401E04900170641E601CF6D128
:10136000002440E4059A06A8801A1830884202D06A
:101370003A48A43842E403AA05A904A800F0ACFD49
:10138000002897D10298002815D00399002902D08F
:101390003248AB3832E4059A06A9891A18318142DD
:1013A00002D02E48AC3829E402AA05A904A800F00E
:1013B000CDFB00288ED1002C0AD1B54208D005986B
:1013C0008021401E059001700198401C01900AE4A4
:1013D00005988021401E059001700198401C0190E5
:1013E0006D1E2B786D1C01AA05A904A800F0E4FC71
:1013F0000028A4D1281BB04202D219487B3804E44B
:1014000004993819884208D91348CD3803E46D1E71
:1014100004982978401E04900170641E601CF6D167
:101420000024D6E4059A06A8801A1830884202D013
:101430000A48CD3812E403AA05A904A800F04CFD1F
:101440000028F7D1029800281BD00399002909D061
:101450000248D43810E40000AEBCF0FFE4FEFFFF09
:101460001F7AE1FF059A06A9891A1831814201D035
:1014700080480CE402AA05A904A800F067FB002834
:10148000F7D1002C0AD1B54208D005984021401E62
:10149000059001700198401C01909AE40598402144
:1014A000401E059001700198401C01906D1E2B7824
:1014B0006D1C01AA05A904A800F07EFC0028D8D163
:1014C000281BB04201D26C480EE4049938198842B6
:1014D00007D96A4808E46D1E04982978401E0490D4
:1014E0000170641E601CF6D1002472E4059A06A8FF
:1014F000801A1830884202D05E48213804E403AADA
:1015000005A904A800F0E8FC0028F7D102980028FB
:1015100015D00399002902D05648283806E4059AC8
:1015200006A9891A1831814202D05248293808E4A4
:1015300002AA05A904A800F009FB0028F7D1002C95
:101540000AD1B54208D00598A021401E059001702F
:101550000198401C01903CE40598A021401E059094
:1015600001700198401C01906D1E2B786D1C01AA22
:1015700005A904A800F020FC002802E01AE02CE0F5
:101580001BE0D4D1281BB04202D23B48293834E4B6
:1015900004993819884208D9384829382DE46D1E35
:1015A00004982978401E04900170641E601CF6D1D6
:1015B00000240EE42F4848381FE4059A06A8801A34
:1015C0001830884202D02B484B3816E403AA05A9EC
:1015D00004A800F081FC0028D9D10298002815D079
:1015E0000399002902D02348523806E4059A06A937
:1015F000891A1831814202D01E48533809E402AAE0
:1016000005A904A800F0A2FA0028F7D10198002843
:1016100018D00399002902D016485A380FE4059AC9
:1016200006A9891A1831814202D012485B3806E4B3
:101630006D1E2B786D1C01AA05A904A800F0BCFB47
:101640000028EBD1281BB04202D20B48503806E4E8
:1016500004993819884208D90848503808E46D1EA2
:1016600004982978401E04900170641E601CF6D115
:10167000002414E40FFEFFFF7B79E1FFB8BBF0FF0D
:10168000F8B517480090174C0021201F01602778FB
:10169000641CE5192E786D1C7D2133462A464901CC
:1016A0001148FFF78FFAB84200D0FEE70E490A1A38
:1016B0007D2149015218002105E0535C675CBB4263
:1016C00000D0FEE7491C8142F7DBAC190549091F30
:1016D0000868401C086000988442D8D3F8BD000018
:1016E000C302002074000020C4020020F0B587B0BF
:1016F000074688180690002005970023049303935B
:1017000002930193022A70D30C784E1C002811D149
:1017100025463478761C06998E426FD2A54225D193
:10172000002C09D0FF2C12D0039A0299114319D032
:101730004620C04307B0F0BD019A0299114302D080
:101740003C20C043F6E70399491C0391DEE7019A68
:101750000399114302D04120C043EBE70299491C91
:101760000291D3E70199491C0191CFE7002D05D0E3
:10177000FF2D13D004991F2920D025E0019902984C
:10178000084302D04B20C043D4E70398401C039089
:1017900004AA03A905A800F029FBB7E7019903985B
:1017A000084302D05120C043C4E70298401C029075
:1017B00004AA02A905A800F0E3F9A7E704A905A86F
:1017C00000F06EFA0028B5D105990D70491C0591FD
:1017D0000499491C04910199002997D00399029812
:1017E000084304D06020C043A4E7A9E006E004ABAE
:1017F00001AA294605A800F063FA87E7A54259D156
:10180000002C08D0FF2C1AD00399029808432AD044
:101810007B20C0438EE701990298084302D06920DB
:10182000C04387E70398801C039004AA03A905A876
:1018300000F0DCFA002885D10598C01B7AE70199F1
:101840000398084302D07220C04373E70298801CBB
:10185000029004AA02A905A800F092F9002893D1E9
:101860000598C01B66E70198401C019004981F284A
:1018700005D104A905A800F013FA002884D1059821
:101880000470401C05900498401C049004AB01AA0D
:10189000214605A800F014FA002885D104980028F4
:1018A00005DD04A905A800F0FBF900289CD10598E6
:1018B000C01B3FE7002D05D0FF2D13D004991F2931
:1018C00020D025E001990298084302D09220C0431D
:1018D00030E70398401C039004AA03A905A800F070
:1018E00085FA35E001990398084302D09820C04357
:1018F00020E70298401C029004AA02A905A800F063
:101900003FF925E004A905A800F0CAF9002888D10C
:1019100005990D70491C05910499491C0491019980
:10192000002915D003990298084302D0A720C0438C
:1019300000E704AB01AA294605A800F0C1F907E0B9
:10194000002A02D0012A02D002E00020F2E60C7840
:10195000002887D1002C05D0FF2C10D004981F2818
:1019600023D028E00398401C039004AA03A905A8EB
:1019700000F03CFA00289CD10598C01BDAE60298DA
:10198000401C029004AA02A905A800F0F9F800285A
:101990008FD10498012805DD04A905A800F076F987
:1019A000002886D10598C01BC4E604A905A800F04C
:1019B00077F900288CD105980470401C0590049894
:1019C000401C049004A905A800F060F900288FD1FC
:1019D0000598C01BAEE60000F8B5124E1249002271
:1019E000081F02600A78491C8C182578641C0F486F
:1019F000FFF77CFEA84200D0FEE700210B4A05E07D
:101A0000535C675CBB4200D0FEE7491C8142F7DBB8
:101A10006119054A121F1068401C1060B142E1D3E1
:101A2000F8BD0000C302002074000020C4020020A2
:101A30007047000008B501210A4882690A438261A3
:101A40008069084000900807FEF712FEFFF764F86F
:101A5000FEF772FFFEF7B4FFFFF7BEFFFFF710FEC1
:101A6000FEE7000000100240002801DC0F4870472C
:101A7000042806DC0E4A10182038C07F08700120A8
:101A8000704714280ADC401F094A40002832135CC2
:101A90000B7080184078487002207047152802DBD0
:101AA0000248133870470020704700004FFEFFFFC8
:101AB00008000020002801DC0F487047042806DCDD
:101AC0000E4A10182038C07F087001207047142873
:101AD0000ADC401F094A40000C32135C0B7080186E
:101AE0004078487002207047152802DB02481338FE
:101AF000704700207047000068FEFFFF04000020D0
:101B0000012801DC0F487047042806DC0E4A101833
:101B10002038807F0870012070470D280ADC401FA4
:101B2000094A40004432135C0B70801840784870BA
:101B3000022070470E2802DB02481238704700204E
:101B40007047000036FEFFFF0C00002070B5044611
:101B50000D46164631682868FEF73AFC00280EDB71
:101B6000FF2203E02168491E21600A70401E411CCB
:101B7000F8D128683168401828600020306070BDB6
:101B8000F7B584B004461546059869460068FFF726
:101B90006BFF07460020002F02DA384607B0F0BD81
:101BA000002F01D0002669E03748F7E70028F5DB71
:101BB0006946895DC0292DD0E0293BD0F0294BD062
:101BC000FF2902D030482E38E8E7012F03D054DD3A
:101BD000002E11D017E029681F2903D1294620467D
:101BE00000F05EF82268FF2111702168491C216015
:101BF0002968491C296040E02968002903DD29463D
:101C0000204600F04DF82268FF2111702168491C20
:101C1000216032E029681F2902DD1B481938BDE721
:101C2000C0221143226811702168491C21600021E3
:101C3000296022E029680F2903DD2946204600F0AB
:101C40002FF82978E0221143226811702168491C7D
:101C500021600021296010E029680E2903DD294652
:101C6000204600F01DF82978F022114322681170F7
:101C70002168491C216000212960761CBE4295DB49
:101C800005990020086089E7D6FEFFFF10B50A68B5
:101C9000002A03D000F004F8002800DB002010BD6B
:101CA0000A68002A01DD202A02DBE120C0437047D8
:101CB00003681A700268521C0260002008607047B6
:101CC000FFB585B004460E461D46002004900798D7
:101CD0000068012809D0079869460068FFF710FFDF
:101CE0000746380013D509B0F0BD28681F2805D174
:101CF00029462046FFF7D4FF0028F4D1206806705B
:101D00002068401C20602868401C28604DE0002F9F
:101D100001D0002647E02748E5E70498002801D0D5
:101D20000498E0E76846805D402816D0802804D0FB
:101D3000A02825D01F481C38D5E728681F2802DDB9
:101D40001C48C01FCFE78021084321680870206825
:101D5000401C20600020286024E028680F2804DD53
:101D600029462046FFF79CFF04902878402108432D
:101D7000216808702068401C20600020286011E065
:101D800028680F2804DD29462046FFF789FF0490C4
:101D90002878A0210843216808702068401C206032
:101DA00000202860761CBE42B7DB0799002008603F
:101DB00099E700008EFEFFFFF8B504460D46164673
:101DC0001F4631682868FEF7F3FB00280DDB03E0AF
:101DD0002168491E21600F70401E411CF8D12868FF
:101DE00031684018286000203060F8BDF7B584B035
:101DF00004461546059869460068FFF75BFE0746EE
:101E00000021002F02DA384607B0F0BD002F01D0C4
:101E1000002658E0F920C043F6E7002901DA084619
:101E2000F2E76846805D202807D0502825D060283A
:101E300013D0B02834D02748E6E728681F2802DDF1
:101E400024481B30E0E720221043226810702068ED
:101E5000401C20600020286034E028681F2802DD34
:101E60001C481530D0E760221043226810702068AB
:101E7000401C20600020286024E028680F2804DD32
:101E800029462046FFF70CFF0146287850221043D0
:101E9000226810702068401C20600020286011E03B
:101EA00028680F2804DD29462046FFF7F9FE014681
:101EB0002878B0221043226810702068401C2060EF
:101EC00000202860761CBE42A7DB05990020086030
:101ED0009AE70000E4FEFFFF70B504460D46164683
:101EE00031682868FEF7ECFA00280EDB002203E0D8
:101EF0002168491E21600A70401E411CF8D12868E3
:101F00003168401828603260002070BD0000000079
:101F10000000000001020304060708090000000099
:101F200001020304441F000800000020C402000056
:101F30007A03000808210008C402002004160000EB
:101F4000F80000081113127A100C206050B0FFC086
:101F5000E0F08040A0181A20202060205020B060BF
:101F6000206060605060B050205060505050B0B061
:101F7000131AB007181AFFFFFFC0FFE0FFF0C0FF01
:101F8000C0C0C0E0C0F0E0FFE0C0E0E0E0F0F0136F
:101F90001AF007180E8080804080A04080404040AA
:101FA000A0A0090314A0A01601FF01FF0D22FF2B22
:101FB00002020B13FFFF3D0A20FF610D14E5200212
:101FC0001009FF0220FF0A02020212011011FFFF96
:101FD0000102090281200121C001020208011A0147
:101FE00001180AFFFF0501210141C0021E19051158
:101FF0001602FF2102AA1C02AA211F193F112C015F
:102000006003653B50046C53B0051810022020019A
:10201000AA02AA0102AAAA03AAAA0204190E180C6B
:102020008102AAFF03AAFF0205FFFF102E03C0AA28
:1020300081060A212E04C0AAAA62162119161B6164
:1020400004A3112D02C060080829041F04C060C049
:102050006003BA1B01E01C19072BF01007180A22B5
:1020600033FFFF55667788990C3E0AF02233C20D84
:1020700043E510232233390F313E0AB02233620D7B
:102080004F550A1122334418890B2B290A2F591650
:102090003D202233220B2D2507FF09661DFF05FF7A
:1020A00009FC3A070C1A020E190529C3390E1BFF49
:1020B00006CA29CD1CAA8180CD19011119A83B207F
:1020C00005154D02AAA1040808271C41010F020FA3
:1020D000011E0FC7BB818639AC48A4C6AFA2F15818
:1020E0001A8B9525E20FDA68927F2B2FF836F73599
:1020F0001F1F0A1D1E200B1D7820200A1E1F210BEA
:082100001EDB224213DB01008B
:04000005080000B53A
:00000001FF
